:100000000C94E9000C9406010C9406010C94060172
:100010000C9406010C9406010C9406010C94060144
:100020000C9406010C9406010C9406010C946C03CC
:100030000C948D030C9406010C9406010C9406019B
:100040000C9406010C9406010C9406010C94060114
:100050000C9406010C9406010C9406010C94060104
:100060000C9406010C9406010C9406010C940601F4
:100070000C94060121260107000000000001000089
:10008000B90112000200001D0122002100002F0111
:1000900009002200003F017A000300001901040159
:1000A000030904CF004802030904AD0020200355D2
:1000B000006E006F004A006F00790020004A006F58
:1000C00000790073007400690063006B0000004851
:1000D000034F00700065006E00430068006F0072FF
:1000E00000640020005800200052004D00490054D8
:1000F0000020004500780065007200740069006F00
:10010000006E002000470061006D00650073002054
:10011000004C00610062000000040309040902228F
:100120000001010080320904000001030000000901
:100130002111010001227A000705810340000A0510
:10014000010905A10185011500250135004501754D
:1001500001950805091901290881020501250746AD
:100160003B017504950165140939814265009501CB
:10017000810116000026FF0336000046FF03093008
:1001800009310932093309340935751095068102A0
:100190000600FF092009210922092309240925094C
:1001A00026092709280929092A092B7508950C8190
:1001B000020A21269508B102C012011001000000B8
:1001C00040C410C18200010102000101C1320000DF
:1001D000000011241FBECFEFD2E0DEBFCDBF11E083
:1001E000A0E0B1E0E0E5F9E002C005900D92A23098
:1001F000B107D9F721E0A2E0B1E001C01D92AF3113
:10020000B207E1F70E9473010C94A6040C9400005D
:100210009093CD008093CC0088E18093C90086E064
:100220008093CA0008952091C80027FD0AC0EFE915
:10023000FFE03197F1F700C000000197A1F780E0DF
:1002400008958091CE0008959091C80095FFFCCF4D
:100250008093CE0008958091C80087FF03C08091ED
:10026000CE00F9CF08954AB121E030E0B90102C0D3
:10027000660F771F8A95E2F7CB01462B4AB99BB1EF
:10028000809589238BB908954AB121E030E0B90106
:1002900002C0660F771F8A95E2F7CB01962F9095E3
:1002A00049234AB99BB1892B8BB908951F93CF93EA
:1002B000DF93182F0E94240189E190E00E9413012E
:1002C000C82FD0E081E0810F0E94240189E190E0F5
:1002D0000E94130190E0982F88278C0F9D1FDF91BB
:1002E000CF911F910895CF93DF93CDB7DEB72E97AF
:1002F0000FB6F894DEBF0FBECDBFA89584B7877F39
:1003000084BF0FB6F894A8958091600088618093AF
:100310006000109260000FBE89E190E00E94080129
:1003200080E880936100109261000E9428020E9480
:100330004C02811119C085E00E9433012FEF80E744
:1003400092E0215080409040E1F700C0000085E03D
:100350000E9444012FEF80E792E0215080409040BE
:10036000E1F700C00000E3CF2FEF89E698E12150CC
:1003700080409040E1F700C000008FE39CE90197C6
:10038000F1F700C0000085E00E9433010E942B01BC
:1003900080E00E94240189E190E00E94130189839A
:1003A00081E00E94240189E190E00E9413019A817A
:1003B00080FB90F9282F269520FB91F9282F269570
:1003C000269520FB92F986958695869580FB93F974
:1003D0009A8382E090E00E9456019C838B8384E0A4
:1003E00090E00E9456019E838D8386E090E00E94FB
:1003F000560198878F8388E090E00E9456019A8783
:1004000089878AE090E00E9456019C878B878CE068
:1004100090E00E9456019E878D8785E00E944401EE
:10042000AA24A394C980DA80EB80FC800D811E8110
:100430002F81388549855A856B857C858D859E857C
:100440000E947F029ACF8091E80080FFFCCF089540
:1004500080EA8093D80086E089BD80E090E009B40E
:1004600000FC0DC0EFE9FFE03197F1F700C000009C
:100470000196883EF3E09F0791F781E0089580E8B8
:100480008093D8001092E000109203018CE08093DA
:10049000E200789480E008958091030108958091AE
:1004A0000301811102C08FEF08958FB7F89491E096
:1004B0009093E9009091E4009E5C21E03091E80087
:1004C00035FD0EC08FBF80910301882361F38091B9
:1004D000E400981741F38FB7F8942093E900EECF2A
:1004E000E4E0F1E091919093F10091E0EF31F907B0
:1004F000C9F79AE39093E8008FBF80E00895AF9228
:10050000CF92DF92EF92FF920F931F93CF93DF93DF
:10051000CDB7DEB72E970FB6F894DEBF0FBECDBFB6
:10052000EB82FC820D831E832F83388749875A878D
:100530006B877C878D879E872B813C814D815E8177
:100540006F817885E985FA85AB85BC850D851E852B
:10055000A0920401C092050188E0809306018D2DD0
:100560009D2D9170C92E9D2D9870D92E81FF0FC0A1
:10057000CC2019F097E0F92E04C082FF05C0FF24BB
:10058000F394F09206011EC0109206011BC099233D
:1005900069F0CC2019F095E0F92E0CC082FF03C061
:1005A00093E0F92E07C094E0F92E04C0CC2029F086
:1005B00096E0F92EF09206018CC082FF8AC092E08C
:1005C000F92EF8CFFF24FA94F092130182FF04C0B1
:1005D0008FEF8093140102C010921401DD2021F0EE
:1005E0008FEF8093150102C010921501CC2021F0ED
:1005F0008FEF8093160102C01092160137FD07C0DD
:10060000211584E038072CF02FEF33E002C020E002
:1006100030E057FD07C0411594E059072CF04FEF2B
:1006200053E002C040E050E077FD07C0611584E070
:1006300078072CF06FEF73E002C060E070E0F7FD28
:1006400007C0E11594E0F9072CF0EFEFF3E002C0EA
:10065000E0E0F0E0B7FD07C0A11584E0B8072CF09A
:10066000AFEFB3E002C0A0E0B0E017FD07C0011596
:1006700094E019072CF00FEF13E002C000E010E047
:10068000309308012093070150930A014093090118
:1006900070930C0160930B01F0930E01E0930D0138
:1006A000B0931001A0930F01109312010093110158
:1006B0002E960FB6F894DEBF0FBECDBFDF91CF915F
:1006C0001F910F91FF90EF90DF90CF90AF900C941F
:1006D0004F02109213017ACF1F920F920FB60F9212
:1006E00011248F938091E1001092E10083FF0FC0ED
:1006F0001092E90081E08093EB001092EC0082E31D
:100700008093ED0088E08093F000109203018F91B8
:100710000F900FBE0F901F9018951F920F920FB65B
:100720000F9211242F933F934F935F936F937F9377
:100730008F939F93AF93BF93CF93DF93EF93FF93E9
:100740001092E9008091E80083FFEAC09091F100E7
:100750008091F100C091F1002091F100D0E0D22B06
:100760002091F1004091F10030E0342B4091F100F4
:100770005091F10062EF6093E800863009F049C0C3
:100780008CE790E0FC0165917491C617D707E1F4FE
:10079000FC0132966591749126173707A9F4FC0184
:1007A000349665917491FC0136968491242F30E043
:1007B000352B2F3F310519F010F02FEF30E02817BF
:1007C00008F4822F3EEF0DC0079660E08D3A960741
:1007D000C9F6A6C0690F711D891B3093E8008823F4
:1007E000A9F09091E800292F2570D9F392FD9BC0C4
:1007F000982F813408F090E4FB01292F222351F334
:1008000044914093F10021503196F8CF903449F350
:100810008AC0853049F48EEF8093E8000E9423025D
:10082000C068C093E3007FC0893059F591113BC087
:10083000C09303018EEF8093E80041E08BEC91E0E0
:100840004093E9009C012F5F3F4FFC01549150936E
:10085000EB00552359F0F90124912093EC009C0101
:100860002D5F3F4F3196E491E093ED004F5F4530AF
:1008700011F0C901E5CF8EE18093EA001092EA0001
:1008800052C0883039F4903871F40E94230280916C
:1008900003012AC0811107C00E9423021092F100B7
:1008A0001092F10039C0232BD9F5913A01F581302E
:1008B00071F40E942302E4E7F0E08CE790E02491D9
:1008C0002093F10031968E179F07C9F725C082301B
:1008D00029F40E9423028091020106C0833001F5B1
:1008E0000E942302809100018093F10015C0913293
:1008F000B9F4893041F48091E80082FFFCCF8BEF9E
:100900008093E80009C08A3019F4D093020104C032
:100910008B3031F4C09300018EEF8093E80003C068
:1009200081E28093EB00FF91EF91DF91CF91BF9136
:10093000AF919F918F917F916F915F914F913F9177
:100940002F910F900FBE0F901F901895F894FFCF26
:020950000100A4
:00000001FF
